{
  "contractName": "CarDetails",
  "abi": [
    {
      "constant": true,
      "inputs": [],
      "name": "carCount",
      "outputs": [
        {
          "internalType": "uint256",
          "name": "",
          "type": "uint256"
        }
      ],
      "payable": false,
      "stateMutability": "view",
      "type": "function"
    }
  ],
  "bytecode": "0x608060405260008055348015601357600080fd5b506080806100226000396000f3fe6080604052348015600f57600080fd5b506004361060285760003560e01c8063297a1f5614602d575b600080fd5b60336045565b60408051918252519081900360200190f35b6000548156fea265627a7a723158205d4c1e0c696d7733ebba109fc833709b5d8682ee51a71c8f0fdefd5deeef726664736f6c63430005100032",
  "source": "pragma solidity ^0.5.0;\n\ncontract CarDetails {\n    uint public carCount = 0;\n}",
  "sourcePath": "/Users/nikitapetrenko/Desktop/Cardapp/contracts/CarDetails.sol",
  "compiler": {
    "name": "solc",
    "version": "0.5.16+commit.9c3226ce.Emscripten.clang"
  },
  "schemaVersion": "3.3.3",
  "updatedAt": "2021-01-15T20:10:37.655Z",
  "networkType": "ethereum",
  "devdoc": {
    "methods": {}
  },
  "userdoc": {
    "methods": {}
  }
}