{
  "contractName": "CarDetails",
  "abi": [
    {
      "inputs": [],
      "payable": false,
      "stateMutability": "nonpayable",
      "type": "constructor"
    },
    {
      "constant": true,
      "inputs": [],
      "name": "carCount",
      "outputs": [
        {
          "internalType": "uint256",
          "name": "",
          "type": "uint256"
        }
      ],
      "payable": false,
      "stateMutability": "view",
      "type": "function"
    },
    {
      "constant": true,
      "inputs": [
        {
          "internalType": "uint256",
          "name": "",
          "type": "uint256"
        }
      ],
      "name": "cars",
      "outputs": [
        {
          "internalType": "uint256",
          "name": "id",
          "type": "uint256"
        },
        {
          "internalType": "string",
          "name": "carModel",
          "type": "string"
        },
        {
          "internalType": "uint256",
          "name": "vin",
          "type": "uint256"
        },
        {
          "internalType": "uint256",
          "name": "mileage",
          "type": "uint256"
        },
        {
          "internalType": "uint256",
          "name": "numOfOwners",
          "type": "uint256"
        },
        {
          "internalType": "uint256",
          "name": "numOfServiceVisits",
          "type": "uint256"
        },
        {
          "internalType": "uint256",
          "name": "numOfReportedAccidents",
          "type": "uint256"
        }
      ],
      "payable": false,
      "stateMutability": "view",
      "type": "function"
    },
    {
      "constant": false,
      "inputs": [
        {
          "internalType": "string",
          "name": "_model",
          "type": "string"
        },
        {
          "internalType": "uint256",
          "name": "_vin",
          "type": "uint256"
        },
        {
          "internalType": "uint256",
          "name": "_mileage",
          "type": "uint256"
        },
        {
          "internalType": "uint256",
          "name": "_numOfOwners",
          "type": "uint256"
        },
        {
          "internalType": "uint256",
          "name": "_numOfServiceVisits",
          "type": "uint256"
        },
        {
          "internalType": "uint256",
          "name": "_numOfReportedAccidents",
          "type": "uint256"
        }
      ],
      "name": "createCar",
      "outputs": [],
      "payable": false,
      "stateMutability": "nonpayable",
      "type": "function"
    }
  ],
  "bytecode": "0x60806040526000805534801561001457600080fd5b5060408051808201909152601081526f4b6f656e696773656767204a65736b6f60801b602082015261005990607b610bb86002600760006001600160e01b0361005e16565b61019f565b6000805460019081018083556040805160e08101825282815260208082018c81528284018c9052606083018b9052608083018a905260a0830189905260c0830188905293865284815291909420845181559151805192936100c793908501929190910190610104565b5060408201516002820155606082015160038201556080820151600482015560a0820151600582015560c090910151600690910155505050505050565b828054600181600116156101000203166002900490600052602060002090601f016020900481019282601f1061014557805160ff1916838001178555610172565b82800160010185558215610172579182015b82811115610172578251825591602001919060010190610157565b5061017e929150610182565b5090565b61019c91905b8082111561017e5760008155600101610188565b90565b61041e806101ae6000396000f3fe608060405234801561001057600080fd5b50600436106100415760003560e01c8063297a1f5614610046578063f0b9d27014610060578063f7746e361461011f575b600080fd5b61004e6101de565b60408051918252519081900360200190f35b61011d600480360360c081101561007657600080fd5b81019060208101813564010000000081111561009157600080fd5b8201836020820111156100a357600080fd5b803590602001918460018302840111640100000000831117156100c557600080fd5b91908080601f01602080910402602001604051908101604052809392919081815260200183838082843760009201919091525092955050823593505050602081013590604081013590606081013590608001356101e4565b005b61013c6004803603602081101561013557600080fd5b503561028a565b6040518088815260200180602001878152602001868152602001858152602001848152602001838152602001828103825288818151815260200191508051906020019080838360005b8381101561019d578181015183820152602001610185565b50505050905090810190601f1680156101ca5780820380516001836020036101000a031916815260200191505b509850505050505050505060405180910390f35b60005481565b6000805460019081018083556040805160e08101825282815260208082018c81528284018c9052606083018b9052608083018a905260a0830189905260c08301889052938652848152919094208451815591518051929361024d9390850192919091019061034e565b5060408201516002820155606082015160038201556080820151600482015560a0820151600582015560c090910151600690910155505050505050565b600160208181526000928352604092839020805481840180548651600296821615610100026000190190911695909504601f810185900485028601850190965285855290949193929091908301828280156103265780601f106102fb57610100808354040283529160200191610326565b820191906000526020600020905b81548152906001019060200180831161030957829003601f168201915b5050505050908060020154908060030154908060040154908060050154908060060154905087565b828054600181600116156101000203166002900490600052602060002090601f016020900481019282601f1061038f57805160ff19168380011785556103bc565b828001600101855582156103bc579182015b828111156103bc5782518255916020019190600101906103a1565b506103c89291506103cc565b5090565b6103e691905b808211156103c857600081556001016103d2565b9056fea265627a7a72315820f3bb22a16ac1e407dc0fa33dc0d809e99e994c33cf51cabdb6d1abfbee28ede264736f6c63430005100032",
  "source": "pragma solidity ^0.5.0;\n\ncontract CarDetails {\n    uint public carCount = 0;\n\n    // Car object\n    struct Car {\n        uint id;\n        string carModel;\n        uint vin;\n        uint mileage;\n        uint numOfOwners;\n        uint numOfServiceVisits;\n        uint numOfReportedAccidents;\n    }\n\n    // Storing\n    mapping(uint => Car) public cars;\n\n    // Gets called when a smart contract is run for the first time\n    constructor() public {\n        // Add default car\n        createCar(\"Koenigsegg Jesko\", 123, 3000, 2, 7, 0);\n    }\n\n    // Put a new car inside the mapping\n    function createCar(string memory _model, uint _vin, uint _mileage, uint _numOfOwners, uint _numOfServiceVisits, uint _numOfReportedAccidents) public {\n        carCount++;\n        cars[carCount] = Car(carCount, _model, _vin, _mileage, _numOfOwners, _numOfServiceVisits, _numOfReportedAccidents);\n    }\n}",
  "sourcePath": "/Users/nikitapetrenko/Desktop/Cardapp/contracts/CarDetails.sol",
  "compiler": {
    "name": "solc",
    "version": "0.5.16+commit.9c3226ce.Emscripten.clang"
  },
  "schemaVersion": "3.3.3",
  "updatedAt": "2021-01-15T21:20:38.323Z",
  "networkType": "ethereum",
  "devdoc": {
    "methods": {}
  },
  "userdoc": {
    "methods": {}
  }
}